{
  "_format": "hh-sol-artifact-1",
  "contractName": "IDMedRec",
  "sourceName": "contracts/IdMedrec.sol",
  "abi": [
    {
      "inputs": [],
      "stateMutability": "nonpayable",
      "type": "constructor"
    },
    {
      "inputs": [
        {
          "internalType": "address",
          "name": "spender",
          "type": "address"
        },
        {
          "internalType": "uint256",
          "name": "allowance",
          "type": "uint256"
        },
        {
          "internalType": "uint256",
          "name": "needed",
          "type": "uint256"
        }
      ],
      "name": "ERC20InsufficientAllowance",
      "type": "error"
    },
    {
      "inputs": [
        {
          "internalType": "address",
          "name": "sender",
          "type": "address"
        },
        {
          "internalType": "uint256",
          "name": "balance",
          "type": "uint256"
        },
        {
          "internalType": "uint256",
          "name": "needed",
          "type": "uint256"
        }
      ],
      "name": "ERC20InsufficientBalance",
      "type": "error"
    },
    {
      "inputs": [
        {
          "internalType": "address",
          "name": "approver",
          "type": "address"
        }
      ],
      "name": "ERC20InvalidApprover",
      "type": "error"
    },
    {
      "inputs": [
        {
          "internalType": "address",
          "name": "receiver",
          "type": "address"
        }
      ],
      "name": "ERC20InvalidReceiver",
      "type": "error"
    },
    {
      "inputs": [
        {
          "internalType": "address",
          "name": "sender",
          "type": "address"
        }
      ],
      "name": "ERC20InvalidSender",
      "type": "error"
    },
    {
      "inputs": [
        {
          "internalType": "address",
          "name": "spender",
          "type": "address"
        }
      ],
      "name": "ERC20InvalidSpender",
      "type": "error"
    },
    {
      "inputs": [],
      "name": "ReentrancyGuardReentrantCall",
      "type": "error"
    },
    {
      "anonymous": false,
      "inputs": [
        {
          "indexed": true,
          "internalType": "address",
          "name": "owner",
          "type": "address"
        },
        {
          "indexed": true,
          "internalType": "address",
          "name": "spender",
          "type": "address"
        },
        {
          "indexed": false,
          "internalType": "uint256",
          "name": "value",
          "type": "uint256"
        }
      ],
      "name": "Approval",
      "type": "event"
    },
    {
      "anonymous": false,
      "inputs": [
        {
          "indexed": false,
          "internalType": "address",
          "name": "doctorAddress_",
          "type": "address"
        },
        {
          "indexed": false,
          "internalType": "uint256",
          "name": "doctorId_",
          "type": "uint256"
        }
      ],
      "name": "DoctorAdded",
      "type": "event"
    },
    {
      "anonymous": false,
      "inputs": [
        {
          "indexed": false,
          "internalType": "address",
          "name": "patientAddress_",
          "type": "address"
        },
        {
          "indexed": false,
          "internalType": "uint256",
          "name": "patientId_",
          "type": "uint256"
        },
        {
          "indexed": false,
          "internalType": "address",
          "name": "doctorAddress_",
          "type": "address"
        },
        {
          "indexed": false,
          "internalType": "uint256",
          "name": "doctorId_",
          "type": "uint256"
        }
      ],
      "name": "MedicalRecordAdded",
      "type": "event"
    },
    {
      "anonymous": false,
      "inputs": [
        {
          "indexed": false,
          "internalType": "address",
          "name": "patientAddress_",
          "type": "address"
        },
        {
          "indexed": false,
          "internalType": "uint256",
          "name": "patientId_",
          "type": "uint256"
        }
      ],
      "name": "PatientAdded",
      "type": "event"
    },
    {
      "anonymous": false,
      "inputs": [
        {
          "indexed": true,
          "internalType": "address",
          "name": "from",
          "type": "address"
        },
        {
          "indexed": true,
          "internalType": "address",
          "name": "to",
          "type": "address"
        },
        {
          "indexed": false,
          "internalType": "uint256",
          "name": "value",
          "type": "uint256"
        }
      ],
      "name": "Transfer",
      "type": "event"
    },
    {
      "inputs": [
        {
          "internalType": "address",
          "name": "_doctorAddress",
          "type": "address"
        },
        {
          "internalType": "string",
          "name": "_doctorUri",
          "type": "string"
        },
        {
          "internalType": "uint256",
          "name": "_doctorId",
          "type": "uint256"
        }
      ],
      "name": "addDoctor",
      "outputs": [],
      "stateMutability": "nonpayable",
      "type": "function"
    },
    {
      "inputs": [
        {
          "internalType": "address",
          "name": "_patientAddress",
          "type": "address"
        },
        {
          "internalType": "string",
          "name": "_patientUri",
          "type": "string"
        },
        {
          "internalType": "uint256",
          "name": "_patientId",
          "type": "uint256"
        }
      ],
      "name": "addPatient",
      "outputs": [],
      "stateMutability": "nonpayable",
      "type": "function"
    },
    {
      "inputs": [
        {
          "internalType": "address",
          "name": "owner",
          "type": "address"
        },
        {
          "internalType": "address",
          "name": "spender",
          "type": "address"
        }
      ],
      "name": "allowance",
      "outputs": [
        {
          "internalType": "uint256",
          "name": "",
          "type": "uint256"
        }
      ],
      "stateMutability": "view",
      "type": "function"
    },
    {
      "inputs": [
        {
          "internalType": "address",
          "name": "spender",
          "type": "address"
        },
        {
          "internalType": "uint256",
          "name": "value",
          "type": "uint256"
        }
      ],
      "name": "approve",
      "outputs": [
        {
          "internalType": "bool",
          "name": "",
          "type": "bool"
        }
      ],
      "stateMutability": "nonpayable",
      "type": "function"
    },
    {
      "inputs": [
        {
          "internalType": "address",
          "name": "account",
          "type": "address"
        }
      ],
      "name": "balanceOf",
      "outputs": [
        {
          "internalType": "uint256",
          "name": "",
          "type": "uint256"
        }
      ],
      "stateMutability": "view",
      "type": "function"
    },
    {
      "inputs": [
        {
          "internalType": "address",
          "name": "_patient",
          "type": "address"
        },
        {
          "internalType": "string",
          "name": "_patientRecordUri",
          "type": "string"
        },
        {
          "internalType": "uint256",
          "name": "_patientId",
          "type": "uint256"
        },
        {
          "internalType": "address",
          "name": "_doctorAddress",
          "type": "address"
        },
        {
          "internalType": "uint256",
          "name": "_doctorId",
          "type": "uint256"
        }
      ],
      "name": "createMedicalRecord",
      "outputs": [],
      "stateMutability": "nonpayable",
      "type": "function"
    },
    {
      "inputs": [],
      "name": "decimals",
      "outputs": [
        {
          "internalType": "uint8",
          "name": "",
          "type": "uint8"
        }
      ],
      "stateMutability": "view",
      "type": "function"
    },
    {
      "inputs": [
        {
          "internalType": "address",
          "name": "_doctorAddress",
          "type": "address"
        },
        {
          "internalType": "uint256",
          "name": "_doctorId",
          "type": "uint256"
        }
      ],
      "name": "getDoctor",
      "outputs": [
        {
          "components": [
            {
              "internalType": "address",
              "name": "doctor",
              "type": "address"
            },
            {
              "internalType": "string",
              "name": "uri",
              "type": "string"
            },
            {
              "internalType": "uint256",
              "name": "id",
              "type": "uint256"
            }
          ],
          "internalType": "struct IDMedRec.DoctorStruct",
          "name": "",
          "type": "tuple"
        }
      ],
      "stateMutability": "view",
      "type": "function"
    },
    {
      "inputs": [],
      "name": "getDoctorAmount",
      "outputs": [
        {
          "internalType": "uint256",
          "name": "",
          "type": "uint256"
        }
      ],
      "stateMutability": "view",
      "type": "function"
    },
    {
      "inputs": [
        {
          "internalType": "address",
          "name": "_patient",
          "type": "address"
        },
        {
          "internalType": "uint256",
          "name": "_patientId",
          "type": "uint256"
        }
      ],
      "name": "getMedicalRecords",
      "outputs": [
        {
          "components": [
            {
              "internalType": "string",
              "name": "uri",
              "type": "string"
            },
            {
              "internalType": "uint256",
              "name": "id",
              "type": "uint256"
            }
          ],
          "internalType": "struct IDMedRec.MedicalRecord[]",
          "name": "",
          "type": "tuple[]"
        }
      ],
      "stateMutability": "view",
      "type": "function"
    },
    {
      "inputs": [],
      "name": "getOwner",
      "outputs": [
        {
          "internalType": "address",
          "name": "",
          "type": "address"
        }
      ],
      "stateMutability": "view",
      "type": "function"
    },
    {
      "inputs": [
        {
          "internalType": "address",
          "name": "_patientAddress",
          "type": "address"
        },
        {
          "internalType": "uint256",
          "name": "_patientId",
          "type": "uint256"
        }
      ],
      "name": "getPatient",
      "outputs": [
        {
          "components": [
            {
              "internalType": "address",
              "name": "patient",
              "type": "address"
            },
            {
              "internalType": "string",
              "name": "uri",
              "type": "string"
            },
            {
              "internalType": "uint256",
              "name": "id",
              "type": "uint256"
            }
          ],
          "internalType": "struct IDMedRec.PatientStruct",
          "name": "",
          "type": "tuple"
        }
      ],
      "stateMutability": "view",
      "type": "function"
    },
    {
      "inputs": [],
      "name": "getPatientAmount",
      "outputs": [
        {
          "internalType": "uint256",
          "name": "",
          "type": "uint256"
        }
      ],
      "stateMutability": "view",
      "type": "function"
    },
    {
      "inputs": [],
      "name": "name",
      "outputs": [
        {
          "internalType": "string",
          "name": "",
          "type": "string"
        }
      ],
      "stateMutability": "view",
      "type": "function"
    },
    {
      "inputs": [],
      "name": "symbol",
      "outputs": [
        {
          "internalType": "string",
          "name": "",
          "type": "string"
        }
      ],
      "stateMutability": "view",
      "type": "function"
    },
    {
      "inputs": [],
      "name": "totalSupply",
      "outputs": [
        {
          "internalType": "uint256",
          "name": "",
          "type": "uint256"
        }
      ],
      "stateMutability": "view",
      "type": "function"
    },
    {
      "inputs": [
        {
          "internalType": "address",
          "name": "to",
          "type": "address"
        },
        {
          "internalType": "uint256",
          "name": "value",
          "type": "uint256"
        }
      ],
      "name": "transfer",
      "outputs": [
        {
          "internalType": "bool",
          "name": "",
          "type": "bool"
        }
      ],
      "stateMutability": "nonpayable",
      "type": "function"
    },
    {
      "inputs": [
        {
          "internalType": "address",
          "name": "from",
          "type": "address"
        },
        {
          "internalType": "address",
          "name": "to",
          "type": "address"
        },
        {
          "internalType": "uint256",
          "name": "value",
          "type": "uint256"
        }
      ],
      "name": "transferFrom",
      "outputs": [
        {
          "internalType": "bool",
          "name": "",
          "type": "bool"
        }
      ],
      "stateMutability": "nonpayable",
      "type": "function"
    }
  ],
  "bytecode": "0x60806040523480156200001157600080fd5b506040518060400160405280600881526020016749444d656452656360c01b8152506040518060400160405280600381526020016224a6a960e91b8152508160049081620000609190620002c3565b5060056200006f8282620002c3565b5050506200008f336a108b2a2c28029094000000620000a760201b60201c565b600680546001600160a01b03191633179055620003b7565b6001600160a01b038216620000d75760405163ec442f0560e01b8152600060048201526024015b60405180910390fd5b620000e560008383620000e9565b5050565b6001600160a01b038316620001185780600360008282546200010c91906200038f565b909155506200018c9050565b6001600160a01b038316600090815260016020526040902054818110156200016d5760405163391434e360e21b81526001600160a01b03851660048201526024810182905260448101839052606401620000ce565b6001600160a01b03841660009081526001602052604090209082900390555b6001600160a01b038216620001aa57600380548290039055620001c9565b6001600160a01b03821660009081526001602052604090208054820190555b816001600160a01b0316836001600160a01b03167fddf252ad1be2c89b69c2b068fc378daa952ba7f163c4a11628f55a4df523b3ef836040516200020f91815260200190565b60405180910390a3505050565b634e487b7160e01b600052604160045260246000fd5b600181811c908216806200024757607f821691505b6020821081036200026857634e487b7160e01b600052602260045260246000fd5b50919050565b601f821115620002be576000816000526020600020601f850160051c81016020861015620002995750805b601f850160051c820191505b81811015620002ba57828155600101620002a5565b5050505b505050565b81516001600160401b03811115620002df57620002df6200021c565b620002f781620002f0845462000232565b846200026e565b602080601f8311600181146200032f5760008415620003165750858301515b600019600386901b1c1916600185901b178555620002ba565b600085815260208120601f198616915b8281101562000360578886015182559484019460019091019084016200033f565b50858210156200037f5787850151600019600388901b60f8161c191681555b5050505050600190811b01905550565b80820180821115620003b157634e487b7160e01b600052601160045260246000fd5b92915050565b6115d980620003c76000396000f3fe608060405234801561001057600080fd5b50600436106101165760003560e01c806395d89b41116100a2578063ca73450f11610071578063ca73450f14610238578063d0ea5f6214610258578063dd62ed3e1461026b578063e0eea173146102a4578063ebda21ed146102b757600080fd5b806395d89b41146101f5578063a9059cbb146101fd578063b5a86a9b14610210578063b5da70c61461023057600080fd5b806323b872dd116100e957806323b872dd1461017a578063313ce5671461018d57806363d133ca1461019c57806370a08231146101b1578063893d20e8146101da57600080fd5b806306fdde031461011b578063095ea7b31461013957806315b6cd7f1461015c57806318160ddd14610172575b600080fd5b6101236102ca565b6040516101309190611049565b60405180910390f35b61014c610147366004611078565b61035c565b6040519015158152602001610130565b610164610376565b604051908152602001610130565b600354610164565b61014c6101883660046110a2565b610389565b60405160128152602001610130565b6101af6101aa366004611181565b6103ad565b005b6101646101bf3660046111f1565b6001600160a01b031660009081526001602052604090205490565b6006546040516001600160a01b039091168152602001610130565b6101236105f1565b61014c61020b366004611078565b610600565b61022361021e366004611078565b61060e565b604051610130919061120c565b610164610728565b61024b610246366004611078565b610736565b60405161013091906112c0565b61024b610266366004611078565b610842565b6101646102793660046112d3565b6001600160a01b03918216600090815260026020908152604080832093909416825291909152205490565b6101af6102b2366004611306565b6108ba565b6101af6102c5366004611306565b610a75565b6060600480546102d99061135d565b80601f01602080910402602001604051908101604052809291908181526020018280546103059061135d565b80156103525780601f1061032757610100808354040283529160200191610352565b820191906000526020600020905b81548152906001019060200180831161033557829003601f168201915b5050505050905090565b60003361036a818585610bc1565b60019150505b92915050565b600061038460076002610bd3565b905090565b600033610397858285610c09565b6103a2858585610c87565b506001949350505050565b60005460ff1615156001036103d557604051633ee5aeb560e01b815260040160405180910390fd5b6000805460ff191660011781556001600160a01b038381168252600b60209081526040808420858552909152909120541661046b5760405162461bcd60e51b815260206004820152602b60248201527f4572726f723a204f6e6c7920646f63746f722063616e206164642061206d656460448201526a1a58d85b081c9958dbdc9960aa1b60648201526084015b60405180910390fd5b6001600160a01b038581166000908152600c60209081526040808320878452909152902054166104dd5760405162461bcd60e51b815260206004820152601b60248201527f4572726f723a2050617469656e74206973206e6f7420746865726500000000006044820152606401610462565b6104e960076001610ce6565b6001600160a01b0385166000908152600a60209081526040808320868452825280832081518083019092528782529291810161052760076001610bd3565b905282546001810184556000848152602090208251929350839260029092020190819061055490826113e7565b506020918201516001909101556001600160a01b0388166000908152600a8252604080822088835290925220825461058e91908490610f21565b50604080516001600160a01b03891681526020810187905233818301526060810185905290517ff115d819087e5715e137025a6ecd737326821dc61e3c5ef5932984963ef800ab9181900360800190a150506000805460ff191690555050505050565b6060600580546102d99061135d565b60003361036a818585610c87565b6001600160a01b0382166000908152600a602090815260408083208484528252808320805482518185028101850190935280835260609492939192909184015b8282101561071c57838290600052602060002090600202016040518060400160405290816000820180546106819061135d565b80601f01602080910402602001604051908101604052809291908181526020018280546106ad9061135d565b80156106fa5780601f106106cf576101008083540402835291602001916106fa565b820191906000526020600020905b8154815290600101906020018083116106dd57829003601f168201915b505050505081526020016001820154815250508152602001906001019061064e565b50505050905092915050565b600061038460076003610bd3565b610763604051806060016040528060006001600160a01b0316815260200160608152602001600081525090565b6001600160a01b038084166000908152600b6020908152604080832086845282529182902082516060810190935280549093168252600183018054929392918401916107ae9061135d565b80601f01602080910402602001604051908101604052809291908181526020018280546107da9061135d565b80156108275780601f106107fc57610100808354040283529160200191610827565b820191906000526020600020905b81548152906001019060200180831161080a57829003601f168201915b50505050508152602001600282015481525050905092915050565b61086f604051806060016040528060006001600160a01b0316815260200160608152602001600081525090565b6001600160a01b038084166000908152600c6020908152604080832086845282529182902082516060810190935280549093168252600183018054929392918401916107ae9061135d565b6006546001600160a01b0316331461091f5760405162461bcd60e51b815260206004820152602260248201527f4572726f723a204f6e6c79206f776e65722063616e20616464206120646f637460448201526137b960f11b6064820152608401610462565b6001600160a01b0383166000908152600b60209081526040808320848452909152902060020154156109935760405162461bcd60e51b815260206004820152601b60248201527f4572726f723a20446f63746f7220616c726561647920657869737400000000006044820152606401610462565b61099f60076002610ce6565b604080516060810182526001600160a01b03851681526020810184905260009181016109cd60076002610bd3565b90526001600160a01b038581166000908152600b602090815260408083208784528252909120835181546001600160a01b031916931692909217825582015191925082916001820190610a2090826113e7565b506040918201516002919091015580516001600160a01b0386168152602081018490527f116cdc7f99f6e75498b3babd17f66a95436b0f05fc7dc8fc066a3797ab7ef27d91015b60405180910390a150505050565b6001600160a01b0383166000908152600c6020908152604080832084845290915290206002015415610ae95760405162461bcd60e51b815260206004820152601d60248201527f4572726f723a2050617469656e7420616c7265616479206578697374730000006044820152606401610462565b610af560076003610ce6565b604080516060810182526001600160a01b0385168152602081018490526000918101610b2360076003610bd3565b90526001600160a01b038581166000908152600c602090815260408083208784528252909120835181546001600160a01b031916931692909217825582015191925082916001820190610b7690826113e7565b506040918201516002919091015580516001600160a01b0386168152602081018490527f9f815c7c90015ccc408ebc7248155bc63ec6c595bea724abf4d4c58066fb40029101610a67565b610bce8383836001610d22565b505050565b60008160ff16600114610bff578160ff16600214610bf5578260010154610c02565b8260020154610c02565b82545b9392505050565b6001600160a01b038381166000908152600260209081526040808320938616835292905220546000198114610c815781811015610c7257604051637dc7a0d960e11b81526001600160a01b03841660048201526024810182905260448101839052606401610462565b610c8184848484036000610d22565b50505050565b6001600160a01b038316610cb157604051634b637e8f60e11b815260006004820152602401610462565b6001600160a01b038216610cdb5760405163ec442f0560e01b815260006004820152602401610462565b610bce838383610df7565b8060ff16600114610d18578060ff16600214610d0b5750600190810180549091019055565b5060020180546001019055565b5080546001019055565b6001600160a01b038416610d4c5760405163e602df0560e01b815260006004820152602401610462565b6001600160a01b038316610d7657604051634a1406b160e11b815260006004820152602401610462565b6001600160a01b0380851660009081526002602090815260408083209387168352929052208290558015610c8157826001600160a01b0316846001600160a01b03167f8c5be1e5ebec7d5bd14f71427d1e84f3dd0314c0f7b2291e5b200ac8c7c3b92584604051610de991815260200190565b60405180910390a350505050565b6001600160a01b038316610e22578060036000828254610e1791906114a7565b90915550610e949050565b6001600160a01b03831660009081526001602052604090205481811015610e755760405163391434e360e21b81526001600160a01b03851660048201526024810182905260448101839052606401610462565b6001600160a01b03841660009081526001602052604090209082900390555b6001600160a01b038216610eb057600380548290039055610ecf565b6001600160a01b03821660009081526001602052604090208054820190555b816001600160a01b0316836001600160a01b03167fddf252ad1be2c89b69c2b068fc378daa952ba7f163c4a11628f55a4df523b3ef83604051610f1491815260200190565b60405180910390a3505050565b828054828255906000526020600020906002028101928215610f7d5760005260206000209160020282015b82811115610f7d57828280610f6183826114c8565b5060018201548160010155505091600201919060020190610f4c565b50610f89929150610f8d565b5090565b80821115610f89576000610fa18282610fb1565b5060006001820155600201610f8d565b508054610fbd9061135d565b6000825580601f10610fcd575050565b601f016020900490600052602060002090810190610feb9190610fee565b50565b5b80821115610f895760008155600101610fef565b6000815180845260005b818110156110295760208185018101518683018201520161100d565b506000602082860101526020601f19601f83011685010191505092915050565b602081526000610c026020830184611003565b80356001600160a01b038116811461107357600080fd5b919050565b6000806040838503121561108b57600080fd5b6110948361105c565b946020939093013593505050565b6000806000606084860312156110b757600080fd5b6110c08461105c565b92506110ce6020850161105c565b9150604084013590509250925092565b634e487b7160e01b600052604160045260246000fd5b600082601f83011261110557600080fd5b813567ffffffffffffffff80821115611120576111206110de565b604051601f8301601f19908116603f01168101908282118183101715611148576111486110de565b8160405283815286602085880101111561116157600080fd5b836020870160208301376000602085830101528094505050505092915050565b600080600080600060a0868803121561119957600080fd5b6111a28661105c565b9450602086013567ffffffffffffffff8111156111be57600080fd5b6111ca888289016110f4565b945050604086013592506111e06060870161105c565b949793965091946080013592915050565b60006020828403121561120357600080fd5b610c028261105c565b600060208083018184528085518083526040925060408601915060408160051b87010184880160005b8381101561127657888303603f190185528151805187855261125988860182611003565b918901519489019490945294870194925090860190600101611235565b509098975050505050505050565b6001600160a01b03815116825260006020820151606060208501526112ac6060850182611003565b604093840151949093019390935250919050565b602081526000610c026020830184611284565b600080604083850312156112e657600080fd5b6112ef8361105c565b91506112fd6020840161105c565b90509250929050565b60008060006060848603121561131b57600080fd5b6113248461105c565b9250602084013567ffffffffffffffff81111561134057600080fd5b61134c868287016110f4565b925050604084013590509250925092565b600181811c9082168061137157607f821691505b60208210810361139157634e487b7160e01b600052602260045260246000fd5b50919050565b601f821115610bce576000816000526020600020601f850160051c810160208610156113c05750805b601f850160051c820191505b818110156113df578281556001016113cc565b505050505050565b815167ffffffffffffffff811115611401576114016110de565b6114158161140f845461135d565b84611397565b602080601f83116001811461144a57600084156114325750858301515b600019600386901b1c1916600185901b1785556113df565b600085815260208120601f198616915b828110156114795788860151825594840194600190910190840161145a565b50858210156114975787850151600019600388901b60f8161c191681555b5050505050600190811b01905550565b8082018082111561037057634e487b7160e01b600052601160045260246000fd5b8181036114d3575050565b6114dd825461135d565b67ffffffffffffffff8111156114f5576114f56110de565b6115038161140f845461135d565b6000601f821160018114611537576000831561151f5750848201545b600019600385901b1c1916600184901b17845561159c565b600085815260209020601f19841690600086815260209020845b838110156115715782860154825560019586019590910190602001611551565b508583101561158f5781850154600019600388901b60f8161c191681555b50505060018360011b0184555b505050505056fea2646970667358221220b09658969fae7fdb82dfdeba25565bf51945f46c7d3f19c4b4fd77843c60dd3164736f6c63430008180033",
  "linkReferences": {},
  "deployedLinkReferences": {}
}