{
  "_format": "hh-sol-artifact-1",
  "contractName": "IDMedRec",
  "sourceName": "contracts/IdMedrec.sol",
  "abi": [
    {
      "inputs": [],
      "stateMutability": "nonpayable",
      "type": "constructor"
    },
    {
      "inputs": [
        {
          "internalType": "address",
          "name": "spender",
          "type": "address"
        },
        {
          "internalType": "uint256",
          "name": "allowance",
          "type": "uint256"
        },
        {
          "internalType": "uint256",
          "name": "needed",
          "type": "uint256"
        }
      ],
      "name": "ERC20InsufficientAllowance",
      "type": "error"
    },
    {
      "inputs": [
        {
          "internalType": "address",
          "name": "sender",
          "type": "address"
        },
        {
          "internalType": "uint256",
          "name": "balance",
          "type": "uint256"
        },
        {
          "internalType": "uint256",
          "name": "needed",
          "type": "uint256"
        }
      ],
      "name": "ERC20InsufficientBalance",
      "type": "error"
    },
    {
      "inputs": [
        {
          "internalType": "address",
          "name": "approver",
          "type": "address"
        }
      ],
      "name": "ERC20InvalidApprover",
      "type": "error"
    },
    {
      "inputs": [
        {
          "internalType": "address",
          "name": "receiver",
          "type": "address"
        }
      ],
      "name": "ERC20InvalidReceiver",
      "type": "error"
    },
    {
      "inputs": [
        {
          "internalType": "address",
          "name": "sender",
          "type": "address"
        }
      ],
      "name": "ERC20InvalidSender",
      "type": "error"
    },
    {
      "inputs": [
        {
          "internalType": "address",
          "name": "spender",
          "type": "address"
        }
      ],
      "name": "ERC20InvalidSpender",
      "type": "error"
    },
    {
      "inputs": [],
      "name": "ReentrancyGuardReentrantCall",
      "type": "error"
    },
    {
      "anonymous": false,
      "inputs": [
        {
          "indexed": true,
          "internalType": "address",
          "name": "owner",
          "type": "address"
        },
        {
          "indexed": true,
          "internalType": "address",
          "name": "spender",
          "type": "address"
        },
        {
          "indexed": false,
          "internalType": "uint256",
          "name": "value",
          "type": "uint256"
        }
      ],
      "name": "Approval",
      "type": "event"
    },
    {
      "anonymous": false,
      "inputs": [
        {
          "indexed": false,
          "internalType": "address",
          "name": "doctorAddress_",
          "type": "address"
        },
        {
          "indexed": false,
          "internalType": "uint256",
          "name": "doctorId_",
          "type": "uint256"
        }
      ],
      "name": "DoctorAdded",
      "type": "event"
    },
    {
      "anonymous": false,
      "inputs": [
        {
          "indexed": false,
          "internalType": "address",
          "name": "patientAddress_",
          "type": "address"
        },
        {
          "indexed": false,
          "internalType": "uint256",
          "name": "patientId_",
          "type": "uint256"
        },
        {
          "indexed": false,
          "internalType": "address",
          "name": "doctorAddress_",
          "type": "address"
        },
        {
          "indexed": false,
          "internalType": "uint256",
          "name": "doctorId_",
          "type": "uint256"
        }
      ],
      "name": "MedicalRecordAdded",
      "type": "event"
    },
    {
      "anonymous": false,
      "inputs": [
        {
          "indexed": false,
          "internalType": "address",
          "name": "patientAddress_",
          "type": "address"
        },
        {
          "indexed": false,
          "internalType": "uint256",
          "name": "patientId_",
          "type": "uint256"
        }
      ],
      "name": "PatientAdded",
      "type": "event"
    },
    {
      "anonymous": false,
      "inputs": [
        {
          "indexed": true,
          "internalType": "address",
          "name": "from",
          "type": "address"
        },
        {
          "indexed": true,
          "internalType": "address",
          "name": "to",
          "type": "address"
        },
        {
          "indexed": false,
          "internalType": "uint256",
          "name": "value",
          "type": "uint256"
        }
      ],
      "name": "Transfer",
      "type": "event"
    },
    {
      "inputs": [
        {
          "internalType": "address",
          "name": "_doctorAddress",
          "type": "address"
        },
        {
          "internalType": "string",
          "name": "_doctorUri",
          "type": "string"
        },
        {
          "internalType": "uint256",
          "name": "_doctorId",
          "type": "uint256"
        }
      ],
      "name": "addDoctor",
      "outputs": [],
      "stateMutability": "nonpayable",
      "type": "function"
    },
    {
      "inputs": [
        {
          "internalType": "address",
          "name": "_patientAddress",
          "type": "address"
        },
        {
          "internalType": "string",
          "name": "_patientUri",
          "type": "string"
        },
        {
          "internalType": "uint256",
          "name": "_patientId",
          "type": "uint256"
        }
      ],
      "name": "addPatient",
      "outputs": [],
      "stateMutability": "nonpayable",
      "type": "function"
    },
    {
      "inputs": [
        {
          "internalType": "address",
          "name": "owner",
          "type": "address"
        },
        {
          "internalType": "address",
          "name": "spender",
          "type": "address"
        }
      ],
      "name": "allowance",
      "outputs": [
        {
          "internalType": "uint256",
          "name": "",
          "type": "uint256"
        }
      ],
      "stateMutability": "view",
      "type": "function"
    },
    {
      "inputs": [
        {
          "internalType": "address",
          "name": "spender",
          "type": "address"
        },
        {
          "internalType": "uint256",
          "name": "value",
          "type": "uint256"
        }
      ],
      "name": "approve",
      "outputs": [
        {
          "internalType": "bool",
          "name": "",
          "type": "bool"
        }
      ],
      "stateMutability": "nonpayable",
      "type": "function"
    },
    {
      "inputs": [
        {
          "internalType": "address",
          "name": "account",
          "type": "address"
        }
      ],
      "name": "balanceOf",
      "outputs": [
        {
          "internalType": "uint256",
          "name": "",
          "type": "uint256"
        }
      ],
      "stateMutability": "view",
      "type": "function"
    },
    {
      "inputs": [
        {
          "internalType": "address",
          "name": "_patient",
          "type": "address"
        },
        {
          "internalType": "string",
          "name": "_patientRecordUri",
          "type": "string"
        },
        {
          "internalType": "uint256",
          "name": "_patientId",
          "type": "uint256"
        },
        {
          "internalType": "address",
          "name": "_doctorAddress",
          "type": "address"
        },
        {
          "internalType": "uint256",
          "name": "_doctorId",
          "type": "uint256"
        }
      ],
      "name": "createMedicalRecord",
      "outputs": [],
      "stateMutability": "nonpayable",
      "type": "function"
    },
    {
      "inputs": [],
      "name": "decimals",
      "outputs": [
        {
          "internalType": "uint8",
          "name": "",
          "type": "uint8"
        }
      ],
      "stateMutability": "view",
      "type": "function"
    },
    {
      "inputs": [
        {
          "internalType": "address",
          "name": "_doctorAddress",
          "type": "address"
        },
        {
          "internalType": "uint256",
          "name": "_doctorId",
          "type": "uint256"
        }
      ],
      "name": "getDoctor",
      "outputs": [
        {
          "components": [
            {
              "internalType": "address",
              "name": "doctor",
              "type": "address"
            },
            {
              "internalType": "string",
              "name": "uri",
              "type": "string"
            },
            {
              "internalType": "uint256",
              "name": "id",
              "type": "uint256"
            }
          ],
          "internalType": "struct IDMedRec.DoctorStruct",
          "name": "",
          "type": "tuple"
        }
      ],
      "stateMutability": "view",
      "type": "function"
    },
    {
      "inputs": [
        {
          "internalType": "address",
          "name": "_patient",
          "type": "address"
        },
        {
          "internalType": "uint256",
          "name": "_patientId",
          "type": "uint256"
        }
      ],
      "name": "getMedicalRecords",
      "outputs": [
        {
          "components": [
            {
              "internalType": "string",
              "name": "uri",
              "type": "string"
            },
            {
              "internalType": "uint256",
              "name": "id",
              "type": "uint256"
            }
          ],
          "internalType": "struct IDMedRec.MedicalRecord[]",
          "name": "",
          "type": "tuple[]"
        }
      ],
      "stateMutability": "view",
      "type": "function"
    },
    {
      "inputs": [],
      "name": "getOwner",
      "outputs": [
        {
          "internalType": "address",
          "name": "",
          "type": "address"
        }
      ],
      "stateMutability": "view",
      "type": "function"
    },
    {
      "inputs": [
        {
          "internalType": "address",
          "name": "_patientAddress",
          "type": "address"
        },
        {
          "internalType": "uint256",
          "name": "_patientId",
          "type": "uint256"
        }
      ],
      "name": "getPatient",
      "outputs": [
        {
          "components": [
            {
              "internalType": "address",
              "name": "patient",
              "type": "address"
            },
            {
              "internalType": "string",
              "name": "uri",
              "type": "string"
            },
            {
              "internalType": "uint256",
              "name": "id",
              "type": "uint256"
            }
          ],
          "internalType": "struct IDMedRec.PatientStruct",
          "name": "",
          "type": "tuple"
        }
      ],
      "stateMutability": "view",
      "type": "function"
    },
    {
      "inputs": [],
      "name": "name",
      "outputs": [
        {
          "internalType": "string",
          "name": "",
          "type": "string"
        }
      ],
      "stateMutability": "view",
      "type": "function"
    },
    {
      "inputs": [],
      "name": "symbol",
      "outputs": [
        {
          "internalType": "string",
          "name": "",
          "type": "string"
        }
      ],
      "stateMutability": "view",
      "type": "function"
    },
    {
      "inputs": [],
      "name": "totalSupply",
      "outputs": [
        {
          "internalType": "uint256",
          "name": "",
          "type": "uint256"
        }
      ],
      "stateMutability": "view",
      "type": "function"
    },
    {
      "inputs": [
        {
          "internalType": "address",
          "name": "to",
          "type": "address"
        },
        {
          "internalType": "uint256",
          "name": "value",
          "type": "uint256"
        }
      ],
      "name": "transfer",
      "outputs": [
        {
          "internalType": "bool",
          "name": "",
          "type": "bool"
        }
      ],
      "stateMutability": "nonpayable",
      "type": "function"
    },
    {
      "inputs": [
        {
          "internalType": "address",
          "name": "from",
          "type": "address"
        },
        {
          "internalType": "address",
          "name": "to",
          "type": "address"
        },
        {
          "internalType": "uint256",
          "name": "value",
          "type": "uint256"
        }
      ],
      "name": "transferFrom",
      "outputs": [
        {
          "internalType": "bool",
          "name": "",
          "type": "bool"
        }
      ],
      "stateMutability": "nonpayable",
      "type": "function"
    }
  ],
  "bytecode": "0x60806040523480156200001157600080fd5b506040518060400160405280600881526020016749444d656452656360c01b8152506040518060400160405280600381526020016224a6a960e91b8152508160049081620000609190620002c3565b5060056200006f8282620002c3565b5050506200008f336a108b2a2c28029094000000620000a760201b60201c565b600680546001600160a01b03191633179055620003b7565b6001600160a01b038216620000d75760405163ec442f0560e01b8152600060048201526024015b60405180910390fd5b620000e560008383620000e9565b5050565b6001600160a01b038316620001185780600360008282546200010c91906200038f565b909155506200018c9050565b6001600160a01b038316600090815260016020526040902054818110156200016d5760405163391434e360e21b81526001600160a01b03851660048201526024810182905260448101839052606401620000ce565b6001600160a01b03841660009081526001602052604090209082900390555b6001600160a01b038216620001aa57600380548290039055620001c9565b6001600160a01b03821660009081526001602052604090208054820190555b816001600160a01b0316836001600160a01b03167fddf252ad1be2c89b69c2b068fc378daa952ba7f163c4a11628f55a4df523b3ef836040516200020f91815260200190565b60405180910390a3505050565b634e487b7160e01b600052604160045260246000fd5b600181811c908216806200024757607f821691505b6020821081036200026857634e487b7160e01b600052602260045260246000fd5b50919050565b601f821115620002be576000816000526020600020601f850160051c81016020861015620002995750805b601f850160051c820191505b81811015620002ba57828155600101620002a5565b5050505b505050565b81516001600160401b03811115620002df57620002df6200021c565b620002f781620002f0845462000232565b846200026e565b602080601f8311600181146200032f5760008415620003165750858301515b600019600386901b1c1916600185901b178555620002ba565b600085815260208120601f198616915b8281101562000360578886015182559484019460019091019084016200033f565b50858210156200037f5787850151600019600388901b60f8161c191681555b5050505050600190811b01905550565b80820180821115620003b157634e487b7160e01b600052601160045260246000fd5b92915050565b61158e80620003c76000396000f3fe608060405234801561001057600080fd5b50600436106101005760003560e01c806395d89b4111610097578063d0ea5f6211610066578063d0ea5f621461022e578063dd62ed3e14610241578063e0eea1731461027a578063ebda21ed1461028d57600080fd5b806395d89b41146101d3578063a9059cbb146101db578063b5a86a9b146101ee578063ca73450f1461020e57600080fd5b8063313ce567116100d3578063313ce5671461016b57806363d133ca1461017a57806370a082311461018f578063893d20e8146101b857600080fd5b806306fdde0314610105578063095ea7b31461012357806318160ddd1461014657806323b872dd14610158575b600080fd5b61010d6102a0565b60405161011a9190610ffe565b60405180910390f35b61013661013136600461102d565b610332565b604051901515815260200161011a565b6003545b60405190815260200161011a565b610136610166366004611057565b61034c565b6040516012815260200161011a565b61018d610188366004611136565b610370565b005b61014a61019d3660046111a6565b6001600160a01b031660009081526001602052604090205490565b6006546040516001600160a01b03909116815260200161011a565b61010d6105b4565b6101366101e936600461102d565b6105c3565b6102016101fc36600461102d565b6105d1565b60405161011a91906111c1565b61022161021c36600461102d565b6106eb565b60405161011a9190611275565b61022161023c36600461102d565b6107f7565b61014a61024f366004611288565b6001600160a01b03918216600090815260026020908152604080832093909416825291909152205490565b61018d6102883660046112bb565b61086f565b61018d61029b3660046112bb565b610a2a565b6060600480546102af90611312565b80601f01602080910402602001604051908101604052809291908181526020018280546102db90611312565b80156103285780601f106102fd57610100808354040283529160200191610328565b820191906000526020600020905b81548152906001019060200180831161030b57829003601f168201915b5050505050905090565b600033610340818585610b76565b60019150505b92915050565b60003361035a858285610b88565b610365858585610c06565b506001949350505050565b60005460ff16151560010361039857604051633ee5aeb560e01b815260040160405180910390fd5b6000805460ff191660011781556001600160a01b038381168252600b60209081526040808420858552909152909120541661042e5760405162461bcd60e51b815260206004820152602b60248201527f4572726f723a206f6e6c7920646f63746f722063616e206164642061206d656460448201526a1a58d85b081c9958dbdc9960aa1b60648201526084015b60405180910390fd5b6001600160a01b038581166000908152600c60209081526040808320878452909152902054166104a05760405162461bcd60e51b815260206004820152601b60248201527f4572726f723a2070617469656e74206973206e6f7420746865726500000000006044820152606401610425565b6104ac60076001610c65565b6001600160a01b0385166000908152600a6020908152604080832086845282528083208151808301909252878252929181016104ea60076001610ca1565b9052825460018101845560008481526020902082519293508392600290920201908190610517908261139c565b506020918201516001909101556001600160a01b0388166000908152600a8252604080822088835290925220825461055191908490610ed6565b50604080516001600160a01b03891681526020810187905233818301526060810185905290517ff115d819087e5715e137025a6ecd737326821dc61e3c5ef5932984963ef800ab9181900360800190a150506000805460ff191690555050505050565b6060600580546102af90611312565b600033610340818585610c06565b6001600160a01b0382166000908152600a602090815260408083208484528252808320805482518185028101850190935280835260609492939192909184015b828210156106df578382906000526020600020906002020160405180604001604052908160008201805461064490611312565b80601f016020809104026020016040519081016040528092919081815260200182805461067090611312565b80156106bd5780601f10610692576101008083540402835291602001916106bd565b820191906000526020600020905b8154815290600101906020018083116106a057829003601f168201915b5050505050815260200160018201548152505081526020019060010190610611565b50505050905092915050565b610718604051806060016040528060006001600160a01b0316815260200160608152602001600081525090565b6001600160a01b038084166000908152600b60209081526040808320868452825291829020825160608101909352805490931682526001830180549293929184019161076390611312565b80601f016020809104026020016040519081016040528092919081815260200182805461078f90611312565b80156107dc5780601f106107b1576101008083540402835291602001916107dc565b820191906000526020600020905b8154815290600101906020018083116107bf57829003601f168201915b50505050508152602001600282015481525050905092915050565b610824604051806060016040528060006001600160a01b0316815260200160608152602001600081525090565b6001600160a01b038084166000908152600c60209081526040808320868452825291829020825160608101909352805490931682526001830180549293929184019161076390611312565b6006546001600160a01b031633146108d45760405162461bcd60e51b815260206004820152602260248201527f4572726f723a206f6e6c79206f776e65722063616e20616464206120646f637460448201526137b960f11b6064820152608401610425565b6001600160a01b0383166000908152600b60209081526040808320848452909152902060020154156109485760405162461bcd60e51b815260206004820152601b60248201527f4572726f723a20646f63746f7220616c726561647920657869737400000000006044820152606401610425565b61095460076002610c65565b604080516060810182526001600160a01b038516815260208101849052600091810161098260076002610ca1565b90526001600160a01b038581166000908152600b602090815260408083208784528252909120835181546001600160a01b0319169316929092178255820151919250829160018201906109d5908261139c565b506040918201516002919091015580516001600160a01b0386168152602081018490527f116cdc7f99f6e75498b3babd17f66a95436b0f05fc7dc8fc066a3797ab7ef27d91015b60405180910390a150505050565b6001600160a01b0383166000908152600c6020908152604080832084845290915290206002015415610a9e5760405162461bcd60e51b815260206004820152601d60248201527f4572726f723a2070617469656e7420616c7265616479206578697374730000006044820152606401610425565b610aaa60076003610c65565b604080516060810182526001600160a01b0385168152602081018490526000918101610ad860076003610ca1565b90526001600160a01b038581166000908152600c602090815260408083208784528252909120835181546001600160a01b031916931692909217825582015191925082916001820190610b2b908261139c565b506040918201516002919091015580516001600160a01b0386168152602081018490527f9f815c7c90015ccc408ebc7248155bc63ec6c595bea724abf4d4c58066fb40029101610a1c565b610b838383836001610cd7565b505050565b6001600160a01b038381166000908152600260209081526040808320938616835292905220546000198114610c005781811015610bf157604051637dc7a0d960e11b81526001600160a01b03841660048201526024810182905260448101839052606401610425565b610c0084848484036000610cd7565b50505050565b6001600160a01b038316610c3057604051634b637e8f60e11b815260006004820152602401610425565b6001600160a01b038216610c5a5760405163ec442f0560e01b815260006004820152602401610425565b610b83838383610dac565b8060ff16600114610c97578060ff16600214610c8a5750600190810180549091019055565b5060020180546001019055565b5080546001019055565b60008160ff16600114610ccd578160ff16600214610cc3578260010154610cd0565b8260020154610cd0565b82545b9392505050565b6001600160a01b038416610d015760405163e602df0560e01b815260006004820152602401610425565b6001600160a01b038316610d2b57604051634a1406b160e11b815260006004820152602401610425565b6001600160a01b0380851660009081526002602090815260408083209387168352929052208290558015610c0057826001600160a01b0316846001600160a01b03167f8c5be1e5ebec7d5bd14f71427d1e84f3dd0314c0f7b2291e5b200ac8c7c3b92584604051610d9e91815260200190565b60405180910390a350505050565b6001600160a01b038316610dd7578060036000828254610dcc919061145c565b90915550610e499050565b6001600160a01b03831660009081526001602052604090205481811015610e2a5760405163391434e360e21b81526001600160a01b03851660048201526024810182905260448101839052606401610425565b6001600160a01b03841660009081526001602052604090209082900390555b6001600160a01b038216610e6557600380548290039055610e84565b6001600160a01b03821660009081526001602052604090208054820190555b816001600160a01b0316836001600160a01b03167fddf252ad1be2c89b69c2b068fc378daa952ba7f163c4a11628f55a4df523b3ef83604051610ec991815260200190565b60405180910390a3505050565b828054828255906000526020600020906002028101928215610f325760005260206000209160020282015b82811115610f3257828280610f16838261147d565b5060018201548160010155505091600201919060020190610f01565b50610f3e929150610f42565b5090565b80821115610f3e576000610f568282610f66565b5060006001820155600201610f42565b508054610f7290611312565b6000825580601f10610f82575050565b601f016020900490600052602060002090810190610fa09190610fa3565b50565b5b80821115610f3e5760008155600101610fa4565b6000815180845260005b81811015610fde57602081850181015186830182015201610fc2565b506000602082860101526020601f19601f83011685010191505092915050565b602081526000610cd06020830184610fb8565b80356001600160a01b038116811461102857600080fd5b919050565b6000806040838503121561104057600080fd5b61104983611011565b946020939093013593505050565b60008060006060848603121561106c57600080fd5b61107584611011565b925061108360208501611011565b9150604084013590509250925092565b634e487b7160e01b600052604160045260246000fd5b600082601f8301126110ba57600080fd5b813567ffffffffffffffff808211156110d5576110d5611093565b604051601f8301601f19908116603f011681019082821181831017156110fd576110fd611093565b8160405283815286602085880101111561111657600080fd5b836020870160208301376000602085830101528094505050505092915050565b600080600080600060a0868803121561114e57600080fd5b61115786611011565b9450602086013567ffffffffffffffff81111561117357600080fd5b61117f888289016110a9565b9450506040860135925061119560608701611011565b949793965091946080013592915050565b6000602082840312156111b857600080fd5b610cd082611011565b600060208083018184528085518083526040925060408601915060408160051b87010184880160005b8381101561122b57888303603f190185528151805187855261120e88860182610fb8565b9189015194890194909452948701949250908601906001016111ea565b509098975050505050505050565b6001600160a01b03815116825260006020820151606060208501526112616060850182610fb8565b604093840151949093019390935250919050565b602081526000610cd06020830184611239565b6000806040838503121561129b57600080fd5b6112a483611011565b91506112b260208401611011565b90509250929050565b6000806000606084860312156112d057600080fd5b6112d984611011565b9250602084013567ffffffffffffffff8111156112f557600080fd5b611301868287016110a9565b925050604084013590509250925092565b600181811c9082168061132657607f821691505b60208210810361134657634e487b7160e01b600052602260045260246000fd5b50919050565b601f821115610b83576000816000526020600020601f850160051c810160208610156113755750805b601f850160051c820191505b8181101561139457828155600101611381565b505050505050565b815167ffffffffffffffff8111156113b6576113b6611093565b6113ca816113c48454611312565b8461134c565b602080601f8311600181146113ff57600084156113e75750858301515b600019600386901b1c1916600185901b178555611394565b600085815260208120601f198616915b8281101561142e5788860151825594840194600190910190840161140f565b508582101561144c5787850151600019600388901b60f8161c191681555b5050505050600190811b01905550565b8082018082111561034657634e487b7160e01b600052601160045260246000fd5b818103611488575050565b6114928254611312565b67ffffffffffffffff8111156114aa576114aa611093565b6114b8816113c48454611312565b6000601f8211600181146114ec57600083156114d45750848201545b600019600385901b1c1916600184901b178455611551565b600085815260209020601f19841690600086815260209020845b838110156115265782860154825560019586019590910190602001611506565b50858310156115445781850154600019600388901b60f8161c191681555b50505060018360011b0184555b505050505056fea2646970667358221220443f1a58249485724fe9c2d9f32699de9c9508274f1eee3141bb4af3847edda364736f6c63430008180033",
  "linkReferences": {},
  "deployedLinkReferences": {}
}