{
  "_format": "hh-sol-artifact-1",
  "contractName": "IDMedRec",
  "sourceName": "contracts/IdMedrec.sol",
  "abi": [
    {
      "inputs": [],
      "stateMutability": "nonpayable",
      "type": "constructor"
    },
    {
      "inputs": [
        {
          "internalType": "address",
          "name": "spender",
          "type": "address"
        },
        {
          "internalType": "uint256",
          "name": "allowance",
          "type": "uint256"
        },
        {
          "internalType": "uint256",
          "name": "needed",
          "type": "uint256"
        }
      ],
      "name": "ERC20InsufficientAllowance",
      "type": "error"
    },
    {
      "inputs": [
        {
          "internalType": "address",
          "name": "sender",
          "type": "address"
        },
        {
          "internalType": "uint256",
          "name": "balance",
          "type": "uint256"
        },
        {
          "internalType": "uint256",
          "name": "needed",
          "type": "uint256"
        }
      ],
      "name": "ERC20InsufficientBalance",
      "type": "error"
    },
    {
      "inputs": [
        {
          "internalType": "address",
          "name": "approver",
          "type": "address"
        }
      ],
      "name": "ERC20InvalidApprover",
      "type": "error"
    },
    {
      "inputs": [
        {
          "internalType": "address",
          "name": "receiver",
          "type": "address"
        }
      ],
      "name": "ERC20InvalidReceiver",
      "type": "error"
    },
    {
      "inputs": [
        {
          "internalType": "address",
          "name": "sender",
          "type": "address"
        }
      ],
      "name": "ERC20InvalidSender",
      "type": "error"
    },
    {
      "inputs": [
        {
          "internalType": "address",
          "name": "spender",
          "type": "address"
        }
      ],
      "name": "ERC20InvalidSpender",
      "type": "error"
    },
    {
      "inputs": [],
      "name": "ReentrancyGuardReentrantCall",
      "type": "error"
    },
    {
      "anonymous": false,
      "inputs": [
        {
          "indexed": true,
          "internalType": "address",
          "name": "owner",
          "type": "address"
        },
        {
          "indexed": true,
          "internalType": "address",
          "name": "spender",
          "type": "address"
        },
        {
          "indexed": false,
          "internalType": "uint256",
          "name": "value",
          "type": "uint256"
        }
      ],
      "name": "Approval",
      "type": "event"
    },
    {
      "anonymous": false,
      "inputs": [
        {
          "indexed": false,
          "internalType": "address",
          "name": "doctorAddress_",
          "type": "address"
        },
        {
          "indexed": false,
          "internalType": "uint256",
          "name": "doctorId_",
          "type": "uint256"
        }
      ],
      "name": "DoctorAdded",
      "type": "event"
    },
    {
      "anonymous": false,
      "inputs": [
        {
          "indexed": false,
          "internalType": "address",
          "name": "patientAddress_",
          "type": "address"
        },
        {
          "indexed": false,
          "internalType": "uint256",
          "name": "patientId_",
          "type": "uint256"
        },
        {
          "indexed": false,
          "internalType": "address",
          "name": "doctorAddress_",
          "type": "address"
        },
        {
          "indexed": false,
          "internalType": "uint256",
          "name": "doctorId_",
          "type": "uint256"
        }
      ],
      "name": "MedicalRecordAdded",
      "type": "event"
    },
    {
      "anonymous": false,
      "inputs": [
        {
          "indexed": false,
          "internalType": "address",
          "name": "patientAddress_",
          "type": "address"
        },
        {
          "indexed": false,
          "internalType": "uint256",
          "name": "patientId_",
          "type": "uint256"
        }
      ],
      "name": "PatientAdded",
      "type": "event"
    },
    {
      "anonymous": false,
      "inputs": [
        {
          "indexed": true,
          "internalType": "address",
          "name": "from",
          "type": "address"
        },
        {
          "indexed": true,
          "internalType": "address",
          "name": "to",
          "type": "address"
        },
        {
          "indexed": false,
          "internalType": "uint256",
          "name": "value",
          "type": "uint256"
        }
      ],
      "name": "Transfer",
      "type": "event"
    },
    {
      "inputs": [
        {
          "internalType": "address",
          "name": "_doctorAddress",
          "type": "address"
        },
        {
          "internalType": "string",
          "name": "_doctorUri",
          "type": "string"
        },
        {
          "internalType": "uint256",
          "name": "_doctorId",
          "type": "uint256"
        }
      ],
      "name": "addDoctor",
      "outputs": [
        {
          "internalType": "string",
          "name": "",
          "type": "string"
        }
      ],
      "stateMutability": "nonpayable",
      "type": "function"
    },
    {
      "inputs": [
        {
          "internalType": "address",
          "name": "_patientAddress",
          "type": "address"
        },
        {
          "internalType": "string",
          "name": "_patientUri",
          "type": "string"
        },
        {
          "internalType": "uint256",
          "name": "_patientId",
          "type": "uint256"
        }
      ],
      "name": "addPatient",
      "outputs": [
        {
          "internalType": "string",
          "name": "",
          "type": "string"
        }
      ],
      "stateMutability": "nonpayable",
      "type": "function"
    },
    {
      "inputs": [
        {
          "internalType": "address",
          "name": "owner",
          "type": "address"
        },
        {
          "internalType": "address",
          "name": "spender",
          "type": "address"
        }
      ],
      "name": "allowance",
      "outputs": [
        {
          "internalType": "uint256",
          "name": "",
          "type": "uint256"
        }
      ],
      "stateMutability": "view",
      "type": "function"
    },
    {
      "inputs": [
        {
          "internalType": "address",
          "name": "spender",
          "type": "address"
        },
        {
          "internalType": "uint256",
          "name": "value",
          "type": "uint256"
        }
      ],
      "name": "approve",
      "outputs": [
        {
          "internalType": "bool",
          "name": "",
          "type": "bool"
        }
      ],
      "stateMutability": "nonpayable",
      "type": "function"
    },
    {
      "inputs": [
        {
          "internalType": "address",
          "name": "account",
          "type": "address"
        }
      ],
      "name": "balanceOf",
      "outputs": [
        {
          "internalType": "uint256",
          "name": "",
          "type": "uint256"
        }
      ],
      "stateMutability": "view",
      "type": "function"
    },
    {
      "inputs": [
        {
          "internalType": "address",
          "name": "_patient",
          "type": "address"
        },
        {
          "internalType": "string",
          "name": "_patientRecordUri",
          "type": "string"
        },
        {
          "internalType": "uint256",
          "name": "_patientId",
          "type": "uint256"
        },
        {
          "internalType": "uint256",
          "name": "_doctorId",
          "type": "uint256"
        }
      ],
      "name": "createMedicalRecord",
      "outputs": [
        {
          "internalType": "string",
          "name": "",
          "type": "string"
        }
      ],
      "stateMutability": "nonpayable",
      "type": "function"
    },
    {
      "inputs": [],
      "name": "decimals",
      "outputs": [
        {
          "internalType": "uint8",
          "name": "",
          "type": "uint8"
        }
      ],
      "stateMutability": "view",
      "type": "function"
    },
    {
      "inputs": [
        {
          "internalType": "address",
          "name": "_doctorAddress",
          "type": "address"
        },
        {
          "internalType": "uint256",
          "name": "_doctorId",
          "type": "uint256"
        }
      ],
      "name": "getDoctor",
      "outputs": [
        {
          "components": [
            {
              "internalType": "address",
              "name": "doctor",
              "type": "address"
            },
            {
              "internalType": "string",
              "name": "uri",
              "type": "string"
            },
            {
              "internalType": "uint256",
              "name": "id",
              "type": "uint256"
            }
          ],
          "internalType": "struct IDMedRec.DoctorStruct",
          "name": "",
          "type": "tuple"
        }
      ],
      "stateMutability": "view",
      "type": "function"
    },
    {
      "inputs": [
        {
          "internalType": "address",
          "name": "_patient",
          "type": "address"
        },
        {
          "internalType": "uint256",
          "name": "_patientId",
          "type": "uint256"
        }
      ],
      "name": "getMedicalRecords",
      "outputs": [
        {
          "components": [
            {
              "internalType": "string",
              "name": "uri",
              "type": "string"
            },
            {
              "internalType": "uint256",
              "name": "id",
              "type": "uint256"
            }
          ],
          "internalType": "struct IDMedRec.MedicalRecord[]",
          "name": "",
          "type": "tuple[]"
        }
      ],
      "stateMutability": "view",
      "type": "function"
    },
    {
      "inputs": [],
      "name": "getOwner",
      "outputs": [
        {
          "internalType": "address",
          "name": "",
          "type": "address"
        }
      ],
      "stateMutability": "view",
      "type": "function"
    },
    {
      "inputs": [
        {
          "internalType": "address",
          "name": "_patientAddress",
          "type": "address"
        },
        {
          "internalType": "uint256",
          "name": "_patientId",
          "type": "uint256"
        }
      ],
      "name": "getPatient",
      "outputs": [
        {
          "components": [
            {
              "internalType": "address",
              "name": "patient",
              "type": "address"
            },
            {
              "internalType": "string",
              "name": "uri",
              "type": "string"
            },
            {
              "internalType": "uint256",
              "name": "id",
              "type": "uint256"
            }
          ],
          "internalType": "struct IDMedRec.PatientStruct",
          "name": "",
          "type": "tuple"
        }
      ],
      "stateMutability": "view",
      "type": "function"
    },
    {
      "inputs": [],
      "name": "name",
      "outputs": [
        {
          "internalType": "string",
          "name": "",
          "type": "string"
        }
      ],
      "stateMutability": "view",
      "type": "function"
    },
    {
      "inputs": [],
      "name": "symbol",
      "outputs": [
        {
          "internalType": "string",
          "name": "",
          "type": "string"
        }
      ],
      "stateMutability": "view",
      "type": "function"
    },
    {
      "inputs": [],
      "name": "totalSupply",
      "outputs": [
        {
          "internalType": "uint256",
          "name": "",
          "type": "uint256"
        }
      ],
      "stateMutability": "view",
      "type": "function"
    },
    {
      "inputs": [
        {
          "internalType": "address",
          "name": "to",
          "type": "address"
        },
        {
          "internalType": "uint256",
          "name": "value",
          "type": "uint256"
        }
      ],
      "name": "transfer",
      "outputs": [
        {
          "internalType": "bool",
          "name": "",
          "type": "bool"
        }
      ],
      "stateMutability": "nonpayable",
      "type": "function"
    },
    {
      "inputs": [
        {
          "internalType": "address",
          "name": "from",
          "type": "address"
        },
        {
          "internalType": "address",
          "name": "to",
          "type": "address"
        },
        {
          "internalType": "uint256",
          "name": "value",
          "type": "uint256"
        }
      ],
      "name": "transferFrom",
      "outputs": [
        {
          "internalType": "bool",
          "name": "",
          "type": "bool"
        }
      ],
      "stateMutability": "nonpayable",
      "type": "function"
    }
  ],
  "bytecode": "0x60806040523480156200001157600080fd5b506040518060400160405280600881526020016749444d656452656360c01b8152506040518060400160405280600381526020016224a6a960e91b8152508160049081620000609190620002c3565b5060056200006f8282620002c3565b5050506200008f336a108b2a2c28029094000000620000a760201b60201c565b600680546001600160a01b03191633179055620003b7565b6001600160a01b038216620000d75760405163ec442f0560e01b8152600060048201526024015b60405180910390fd5b620000e560008383620000e9565b5050565b6001600160a01b038316620001185780600360008282546200010c91906200038f565b909155506200018c9050565b6001600160a01b038316600090815260016020526040902054818110156200016d5760405163391434e360e21b81526001600160a01b03851660048201526024810182905260448101839052606401620000ce565b6001600160a01b03841660009081526001602052604090209082900390555b6001600160a01b038216620001aa57600380548290039055620001c9565b6001600160a01b03821660009081526001602052604090208054820190555b816001600160a01b0316836001600160a01b03167fddf252ad1be2c89b69c2b068fc378daa952ba7f163c4a11628f55a4df523b3ef836040516200020f91815260200190565b60405180910390a3505050565b634e487b7160e01b600052604160045260246000fd5b600181811c908216806200024757607f821691505b6020821081036200026857634e487b7160e01b600052602260045260246000fd5b50919050565b601f821115620002be576000816000526020600020601f850160051c81016020861015620002995750805b601f850160051c820191505b81811015620002ba57828155600101620002a5565b5050505b505050565b81516001600160401b03811115620002df57620002df6200021c565b620002f781620002f0845462000232565b846200026e565b602080601f8311600181146200032f5760008415620003165750858301515b600019600386901b1c1916600185901b178555620002ba565b600085815260208120601f198616915b8281101562000360578886015182559484019460019091019084016200033f565b50858210156200037f5787850151600019600388901b60f8161c191681555b5050505050600190811b01905550565b80820180821115620003b157634e487b7160e01b600052601160045260246000fd5b92915050565b6116c180620003c76000396000f3fe608060405234801561001057600080fd5b50600436106101005760003560e01c8063960521ca11610097578063d0ea5f6211610066578063d0ea5f621461022c578063dd62ed3e1461023f578063e0eea17314610278578063ebda21ed1461028b57600080fd5b8063960521ca146101c6578063a9059cbb146101d9578063b5a86a9b146101ec578063ca73450f1461020c57600080fd5b8063313ce567116100d3578063313ce5671461016b57806370a082311461017a578063893d20e8146101a357806395d89b41146101be57600080fd5b806306fdde0314610105578063095ea7b31461012357806318160ddd1461014657806323b872dd14610158575b600080fd5b61010d61029e565b60405161011a9190611122565b60405180910390f35b610136610131366004611151565b610330565b604051901515815260200161011a565b6003545b60405190815260200161011a565b61013661016636600461117b565b61034a565b6040516012815260200161011a565b61014a6101883660046111b7565b6001600160a01b031660009081526001602052604090205490565b6006546040516001600160a01b03909116815260200161011a565b61010d61036e565b61010d6101d4366004611275565b61037d565b6101366101e7366004611151565b6105e8565b6101ff6101fa366004611151565b6105f6565b60405161011a91906112d3565b61021f61021a366004611151565b610710565b60405161011a9190611387565b61021f61023a366004611151565b61081c565b61014a61024d36600461139a565b6001600160a01b03918216600090815260026020908152604080832093909416825291909152205490565b61010d6102863660046113cd565b610894565b61010d6102993660046113cd565b610a8e565b6060600480546102ad90611424565b80601f01602080910402602001604051908101604052809291908181526020018280546102d990611424565b80156103265780601f106102fb57610100808354040283529160200191610326565b820191906000526020600020905b81548152906001019060200180831161030957829003601f168201915b5050505050905090565b60003361033e818585610c23565b60019150505b92915050565b600033610358858285610c35565b610363858585610cb3565b506001949350505050565b6060600580546102ad90611424565b60005460609060ff1615156001036103a857604051633ee5aeb560e01b815260040160405180910390fd5b6000805460ff1916600117815533808252600960209081526040808420868552909152909120546001600160a01b03161461043e5760405162461bcd60e51b815260206004820152602b60248201527f4572726f723a204f6e6c7920446f63746f722063616e206164642061206d656460448201526a1a58d85b081c9958dbdc9960aa1b60648201526084015b60405180910390fd5b6001600160a01b038086166000818152600a60209081526040808320888452909152902054909116146104b35760405162461bcd60e51b815260206004820152601f60248201527f4572726f723a205468652070617469656e74206973206e6f74207468657265006044820152606401610435565b6104bf60076001610d12565b6001600160a01b038516600090815260086020908152604080832086845282528083208151808301909252878252929181016104fd60076001610da5565b63ffffffff16905282546001810184556000848152602090208251929350839260029092020190819061053090826114ae565b506020918201516001909101556001600160a01b038816600090815260088252604080822088835290925220825461056a91908490610ffa565b50604080516001600160a01b03891681526020810187905233818301526060810186905290517ff115d819087e5715e137025a6ecd737326821dc61e3c5ef5932984963ef800ab9181900360800190a160405180606001604052806021815260200161166b602191396000805460ff19169055979650505050505050565b60003361033e818585610cb3565b6001600160a01b03821660009081526008602090815260408083208484528252808320805482518185028101850190935280835260609492939192909184015b82821015610704578382906000526020600020906002020160405180604001604052908160008201805461066990611424565b80601f016020809104026020016040519081016040528092919081815260200182805461069590611424565b80156106e25780601f106106b7576101008083540402835291602001916106e2565b820191906000526020600020905b8154815290600101906020018083116106c557829003601f168201915b5050505050815260200160018201548152505081526020019060010190610636565b50505050905092915050565b61073d604051806060016040528060006001600160a01b0316815260200160608152602001600081525090565b6001600160a01b038084166000908152600960209081526040808320868452825291829020825160608101909352805490931682526001830180549293929184019161078890611424565b80601f01602080910402602001604051908101604052809291908181526020018280546107b490611424565b80156108015780601f106107d657610100808354040283529160200191610801565b820191906000526020600020905b8154815290600101906020018083116107e457829003601f168201915b50505050508152602001600282015481525050905092915050565b610849604051806060016040528060006001600160a01b0316815260200160608152602001600081525090565b6001600160a01b038084166000908152600a60209081526040808320868452825291829020825160608101909352805490931682526001830180549293929184019161078890611424565b6006546060906001600160a01b031633146108fc5760405162461bcd60e51b815260206004820152602260248201527f4572726f723a204f6e6c79206f776e65722063616e20616464206120646f637460448201526137b960f11b6064820152608401610435565b6001600160a01b0384166000908152600960209081526040808320858452909152902060020154156109705760405162461bcd60e51b815260206004820152601c60248201527f4572726f723a20446f63746f7220616c726561647920657869737473000000006044820152606401610435565b61097c60076002610d12565b604080516060810182526001600160a01b03861681526020810185905260009181016109aa60076002610da5565b63ffffffff1690526001600160a01b0386811660009081526009602090815260408083208884528252909120835181546001600160a01b031916931692909217825582015191925082916001820190610a0390826114ae565b506040918201516002919091015580516001600160a01b0387168152602081018590527f116cdc7f99f6e75498b3babd17f66a95436b0f05fc7dc8fc066a3797ab7ef27d910160405180910390a1505060408051808201909152601981527f446f63746f72207375636365737366756c6c792061646465640000000000000060208201529392505050565b6001600160a01b0383166000908152600a6020908152604080832084845290915290206002015460609015610b055760405162461bcd60e51b815260206004820152601d60248201527f4572726f723a2050617469656e7420616c7265616479206578697374730000006044820152606401610435565b610b1160076003610d12565b604080516060810182526001600160a01b0386168152602081018590526000918101610b3f60076003610da5565b63ffffffff1690526001600160a01b038681166000908152600a602090815260408083208884528252909120835181546001600160a01b031916931692909217825582015191925082916001820190610b9890826114ae565b506040918201516002919091015580516001600160a01b0387168152602081018590527f9f815c7c90015ccc408ebc7248155bc63ec6c595bea724abf4d4c58066fb4002910160405180910390a1505060408051808201909152601a81527f50617469656e74207375636365737366756c6c7920616464656400000000000060208201529392505050565b610c308383836001610dfb565b505050565b6001600160a01b038381166000908152600260209081526040808320938616835292905220546000198114610cad5781811015610c9e57604051637dc7a0d960e11b81526001600160a01b03841660048201526024810182905260448101839052606401610435565b610cad84848484036000610dfb565b50505050565b6001600160a01b038316610cdd57604051634b637e8f60e11b815260006004820152602401610435565b6001600160a01b038216610d075760405163ec442f0560e01b815260006004820152602401610435565b610c30838383610ed0565b8060ff16600114610d88578060ff16600214610d545750805463ffffffff64010000000080830482166001019091160267ffffffff0000000019909116179055565b50805463ffffffff680100000000000000008083048216600101909116026bffffffff000000000000000019909116179055565b50805463ffffffff8082166001011663ffffffff19909116179055565b60008160ff16600114610deb578160ff16600214610dd2578254640100000000900463ffffffff16610df4565b825468010000000000000000900463ffffffff16610df4565b825463ffffffff165b9392505050565b6001600160a01b038416610e255760405163e602df0560e01b815260006004820152602401610435565b6001600160a01b038316610e4f57604051634a1406b160e11b815260006004820152602401610435565b6001600160a01b0380851660009081526002602090815260408083209387168352929052208290558015610cad57826001600160a01b0316846001600160a01b03167f8c5be1e5ebec7d5bd14f71427d1e84f3dd0314c0f7b2291e5b200ac8c7c3b92584604051610ec291815260200190565b60405180910390a350505050565b6001600160a01b038316610efb578060036000828254610ef0919061156e565b90915550610f6d9050565b6001600160a01b03831660009081526001602052604090205481811015610f4e5760405163391434e360e21b81526001600160a01b03851660048201526024810182905260448101839052606401610435565b6001600160a01b03841660009081526001602052604090209082900390555b6001600160a01b038216610f8957600380548290039055610fa8565b6001600160a01b03821660009081526001602052604090208054820190555b816001600160a01b0316836001600160a01b03167fddf252ad1be2c89b69c2b068fc378daa952ba7f163c4a11628f55a4df523b3ef83604051610fed91815260200190565b60405180910390a3505050565b8280548282559060005260206000209060020281019282156110565760005260206000209160020282015b828111156110565782828061103a838261158f565b5060018201548160010155505091600201919060020190611025565b50611062929150611066565b5090565b8082111561106257600061107a828261108a565b5060006001820155600201611066565b50805461109690611424565b6000825580601f106110a6575050565b601f0160209004906000526020600020908101906110c491906110c7565b50565b5b8082111561106257600081556001016110c8565b6000815180845260005b81811015611102576020818501810151868301820152016110e6565b506000602082860101526020601f19601f83011685010191505092915050565b602081526000610df460208301846110dc565b80356001600160a01b038116811461114c57600080fd5b919050565b6000806040838503121561116457600080fd5b61116d83611135565b946020939093013593505050565b60008060006060848603121561119057600080fd5b61119984611135565b92506111a760208501611135565b9150604084013590509250925092565b6000602082840312156111c957600080fd5b610df482611135565b634e487b7160e01b600052604160045260246000fd5b600082601f8301126111f957600080fd5b813567ffffffffffffffff80821115611214576112146111d2565b604051601f8301601f19908116603f0116810190828211818310171561123c5761123c6111d2565b8160405283815286602085880101111561125557600080fd5b836020870160208301376000602085830101528094505050505092915050565b6000806000806080858703121561128b57600080fd5b61129485611135565b9350602085013567ffffffffffffffff8111156112b057600080fd5b6112bc878288016111e8565b949794965050505060408301359260600135919050565b600060208083018184528085518083526040925060408601915060408160051b87010184880160005b8381101561133d57888303603f1901855281518051878552611320888601826110dc565b9189015194890194909452948701949250908601906001016112fc565b509098975050505050505050565b6001600160a01b038151168252600060208201516060602085015261137360608501826110dc565b604093840151949093019390935250919050565b602081526000610df4602083018461134b565b600080604083850312156113ad57600080fd5b6113b683611135565b91506113c460208401611135565b90509250929050565b6000806000606084860312156113e257600080fd5b6113eb84611135565b9250602084013567ffffffffffffffff81111561140757600080fd5b611413868287016111e8565b925050604084013590509250925092565b600181811c9082168061143857607f821691505b60208210810361145857634e487b7160e01b600052602260045260246000fd5b50919050565b601f821115610c30576000816000526020600020601f850160051c810160208610156114875750805b601f850160051c820191505b818110156114a657828155600101611493565b505050505050565b815167ffffffffffffffff8111156114c8576114c86111d2565b6114dc816114d68454611424565b8461145e565b602080601f83116001811461151157600084156114f95750858301515b600019600386901b1c1916600185901b1785556114a6565b600085815260208120601f198616915b8281101561154057888601518255948401946001909101908401611521565b508582101561155e5787850151600019600388901b60f8161c191681555b5050505050600190811b01905550565b8082018082111561034457634e487b7160e01b600052601160045260246000fd5b81810361159a575050565b6115a48254611424565b67ffffffffffffffff8111156115bc576115bc6111d2565b6115ca816114d68454611424565b6000601f8211600181146115fe57600083156115e65750848201545b600019600385901b1c1916600184901b178455611663565b600085815260209020601f19841690600086815260209020845b838110156116385782860154825560019586019590910190602001611618565b50858310156116565781850154600019600388901b60f8161c191681555b50505060018360011b0184555b505050505056fe4d65646963616c205265636f7264205375636365737366756c6c79206164646564a2646970667358221220b27ff84acfff01d6dcbccecce62fc04ab19f0eb334a363c47a4ac00f13064bc164736f6c63430008180033",
  "linkReferences": {},
  "deployedLinkReferences": {}
}